{
  "_format": "hh-sol-artifact-1",
  "contractName": "Election",
  "sourceName": "contracts/Election.sol",
  "abi": [
    {
      "inputs": [
        {
          "internalType": "string",
          "name": "_name",
          "type": "string"
        }
      ],
      "stateMutability": "nonpayable",
      "type": "constructor"
    },
    {
      "anonymous": false,
      "inputs": [
        {
          "indexed": false,
          "internalType": "uint256",
          "name": "timestamp",
          "type": "uint256"
        }
      ],
      "name": "ElectionClosed",
      "type": "event"
    },
    {
      "anonymous": false,
      "inputs": [
        {
          "indexed": false,
          "internalType": "string",
          "name": "name",
          "type": "string"
        },
        {
          "indexed": false,
          "internalType": "uint256",
          "name": "timestamp",
          "type": "uint256"
        }
      ],
      "name": "ElectionCreated",
      "type": "event"
    },
    {
      "anonymous": false,
      "inputs": [
        {
          "indexed": true,
          "internalType": "address",
          "name": "voter",
          "type": "address"
        },
        {
          "indexed": false,
          "internalType": "string",
          "name": "position",
          "type": "string"
        },
        {
          "indexed": false,
          "internalType": "uint256",
          "name": "candidateId",
          "type": "uint256"
        },
        {
          "indexed": false,
          "internalType": "uint256",
          "name": "blockNumber",
          "type": "uint256"
        }
      ],
      "name": "VoteCast",
      "type": "event"
    },
    {
      "anonymous": false,
      "inputs": [
        {
          "indexed": false,
          "internalType": "address",
          "name": "voter",
          "type": "address"
        }
      ],
      "name": "VoterRegistered",
      "type": "event"
    },
    {
      "inputs": [
        {
          "internalType": "string",
          "name": "_name",
          "type": "string"
        },
        {
          "internalType": "string",
          "name": "_position",
          "type": "string"
        }
      ],
      "name": "addCandidate",
      "outputs": [],
      "stateMutability": "nonpayable",
      "type": "function"
    },
    {
      "inputs": [
        {
          "internalType": "string",
          "name": "_position",
          "type": "string"
        }
      ],
      "name": "addPosition",
      "outputs": [],
      "stateMutability": "nonpayable",
      "type": "function"
    },
    {
      "inputs": [],
      "name": "admin",
      "outputs": [
        {
          "internalType": "address",
          "name": "",
          "type": "address"
        }
      ],
      "stateMutability": "view",
      "type": "function"
    },
    {
      "inputs": [
        {
          "internalType": "uint256",
          "name": "",
          "type": "uint256"
        }
      ],
      "name": "candidates",
      "outputs": [
        {
          "internalType": "uint256",
          "name": "id",
          "type": "uint256"
        },
        {
          "internalType": "string",
          "name": "name",
          "type": "string"
        },
        {
          "internalType": "string",
          "name": "position",
          "type": "string"
        },
        {
          "internalType": "uint256",
          "name": "voteCount",
          "type": "uint256"
        }
      ],
      "stateMutability": "view",
      "type": "function"
    },
    {
      "inputs": [
        {
          "internalType": "string[]",
          "name": "_positions",
          "type": "string[]"
        },
        {
          "internalType": "uint256[]",
          "name": "_candidateIds",
          "type": "uint256[]"
        }
      ],
      "name": "castVote",
      "outputs": [],
      "stateMutability": "nonpayable",
      "type": "function"
    },
    {
      "inputs": [],
      "name": "closeElection",
      "outputs": [],
      "stateMutability": "nonpayable",
      "type": "function"
    },
    {
      "inputs": [],
      "name": "electionName",
      "outputs": [
        {
          "internalType": "string",
          "name": "",
          "type": "string"
        }
      ],
      "stateMutability": "view",
      "type": "function"
    },
    {
      "inputs": [
        {
          "internalType": "string",
          "name": "_position",
          "type": "string"
        }
      ],
      "name": "getCandidatesForPosition",
      "outputs": [
        {
          "components": [
            {
              "internalType": "uint256",
              "name": "id",
              "type": "uint256"
            },
            {
              "internalType": "string",
              "name": "name",
              "type": "string"
            },
            {
              "internalType": "string",
              "name": "position",
              "type": "string"
            },
            {
              "internalType": "uint256",
              "name": "voteCount",
              "type": "uint256"
            }
          ],
          "internalType": "struct Election.Candidate[]",
          "name": "",
          "type": "tuple[]"
        }
      ],
      "stateMutability": "view",
      "type": "function"
    },
    {
      "inputs": [],
      "name": "getPositions",
      "outputs": [
        {
          "internalType": "string[]",
          "name": "",
          "type": "string[]"
        }
      ],
      "stateMutability": "view",
      "type": "function"
    },
    {
      "inputs": [],
      "name": "getResults",
      "outputs": [
        {
          "components": [
            {
              "internalType": "uint256",
              "name": "id",
              "type": "uint256"
            },
            {
              "internalType": "string",
              "name": "name",
              "type": "string"
            },
            {
              "internalType": "string",
              "name": "position",
              "type": "string"
            },
            {
              "internalType": "uint256",
              "name": "voteCount",
              "type": "uint256"
            }
          ],
          "internalType": "struct Election.Candidate[]",
          "name": "",
          "type": "tuple[]"
        }
      ],
      "stateMutability": "view",
      "type": "function"
    },
    {
      "inputs": [
        {
          "internalType": "address",
          "name": "",
          "type": "address"
        }
      ],
      "name": "hasVoted",
      "outputs": [
        {
          "internalType": "bool",
          "name": "",
          "type": "bool"
        }
      ],
      "stateMutability": "view",
      "type": "function"
    },
    {
      "inputs": [],
      "name": "isOpen",
      "outputs": [
        {
          "internalType": "bool",
          "name": "",
          "type": "bool"
        }
      ],
      "stateMutability": "view",
      "type": "function"
    },
    {
      "inputs": [],
      "name": "openElection",
      "outputs": [],
      "stateMutability": "nonpayable",
      "type": "function"
    },
    {
      "inputs": [
        {
          "internalType": "string",
          "name": "",
          "type": "string"
        },
        {
          "internalType": "uint256",
          "name": "",
          "type": "uint256"
        }
      ],
      "name": "positionCandidates",
      "outputs": [
        {
          "internalType": "uint256",
          "name": "",
          "type": "uint256"
        }
      ],
      "stateMutability": "view",
      "type": "function"
    },
    {
      "inputs": [
        {
          "internalType": "uint256",
          "name": "",
          "type": "uint256"
        }
      ],
      "name": "positions",
      "outputs": [
        {
          "internalType": "string",
          "name": "",
          "type": "string"
        }
      ],
      "stateMutability": "view",
      "type": "function"
    },
    {
      "inputs": [
        {
          "internalType": "address",
          "name": "_voter",
          "type": "address"
        }
      ],
      "name": "registerVoter",
      "outputs": [],
      "stateMutability": "nonpayable",
      "type": "function"
    },
    {
      "inputs": [
        {
          "internalType": "address",
          "name": "",
          "type": "address"
        }
      ],
      "name": "registeredVoters",
      "outputs": [
        {
          "internalType": "bool",
          "name": "",
          "type": "bool"
        }
      ],
      "stateMutability": "view",
      "type": "function"
    },
    {
      "inputs": [],
      "name": "resultsRevealed",
      "outputs": [
        {
          "internalType": "bool",
          "name": "",
          "type": "bool"
        }
      ],
      "stateMutability": "view",
      "type": "function"
    }
  ],
  "bytecode": "0x60806040523480156200001157600080fd5b5060405162002c0138038062002c01833981810160405281019062000037919062000294565b336000806101000a81548173ffffffffffffffffffffffffffffffffffffffff021916908373ffffffffffffffffffffffffffffffffffffffff160217905550806001908162000088919062000530565b506000600260006101000a81548160ff0219169083151502179055506000600260016101000a81548160ff0219169083151502179055507f4863550ef2f8bf0ad7eaf72aab4e0a1ac209c52e4cebaebe58ff31a0c18ffe478142604051620000f29291906200067a565b60405180910390a150620006ae565b6000604051905090565b600080fd5b600080fd5b600080fd5b600080fd5b6000601f19601f8301169050919050565b7f4e487b7100000000000000000000000000000000000000000000000000000000600052604160045260246000fd5b6200016a826200011f565b810181811067ffffffffffffffff821117156200018c576200018b62000130565b5b80604052505050565b6000620001a162000101565b9050620001af82826200015f565b919050565b600067ffffffffffffffff821115620001d257620001d162000130565b5b620001dd826200011f565b9050602081019050919050565b60005b838110156200020a578082015181840152602081019050620001ed565b60008484015250505050565b60006200022d6200022784620001b4565b62000195565b9050828152602081018484840111156200024c576200024b6200011a565b5b62000259848285620001ea565b509392505050565b600082601f83011262000279576200027862000115565b5b81516200028b84826020860162000216565b91505092915050565b600060208284031215620002ad57620002ac6200010b565b5b600082015167ffffffffffffffff811115620002ce57620002cd62000110565b5b620002dc8482850162000261565b91505092915050565b600081519050919050565b7f4e487b7100000000000000000000000000000000000000000000000000000000600052602260045260246000fd5b600060028204905060018216806200033857607f821691505b6020821081036200034e576200034d620002f0565b5b50919050565b60008190508160005260206000209050919050565b60006020601f8301049050919050565b600082821b905092915050565b600060088302620003b87fffffffffffffffffffffffffffffffffffffffffffffffffffffffffffffffff8262000379565b620003c4868362000379565b95508019841693508086168417925050509392505050565b6000819050919050565b6000819050919050565b6000620004116200040b6200040584620003dc565b620003e6565b620003dc565b9050919050565b6000819050919050565b6200042d83620003f0565b620004456200043c8262000418565b84845462000386565b825550505050565b600090565b6200045c6200044d565b6200046981848462000422565b505050565b5b8181101562000491576200048560008262000452565b6001810190506200046f565b5050565b601f821115620004e057620004aa8162000354565b620004b58462000369565b81016020851015620004c5578190505b620004dd620004d48562000369565b8301826200046e565b50505b505050565b600082821c905092915050565b60006200050560001984600802620004e5565b1980831691505092915050565b6000620005208383620004f2565b9150826002028217905092915050565b6200053b82620002e5565b67ffffffffffffffff81111562000557576200055662000130565b5b6200056382546200031f565b6200057082828562000495565b600060209050601f831160018114620005a8576000841562000593578287015190505b6200059f858262000512565b8655506200060f565b601f198416620005b88662000354565b60005b82811015620005e257848901518255600182019150602085019450602081019050620005bb565b86831015620006025784890151620005fe601f891682620004f2565b8355505b6001600288020188555050505b505050505050565b600082825260208201905092915050565b60006200063582620002e5565b62000641818562000617565b935062000653818560208601620001ea565b6200065e816200011f565b840191505092915050565b6200067481620003dc565b82525050565b6000604082019050818103600083015262000696818562000628565b9050620006a7602083018462000669565b9392505050565b61254380620006be6000396000f3fe608060405234801561001057600080fd5b50600436106101155760003560e01c806380275860116100a2578063c5d00f5d11610071578063c5d00f5d146102e5578063f21357ad146102ef578063f7fa26461461030b578063f851a4401461033b578063fb9b4cba1461035957610115565b8063802758601461024957806385e8e7a71461026757806399fbab8814610285578063a9ff6df1146102b557610115565b806338db6dd3116100e957806338db6dd3146101c95780633d792d0e146101e55780634717f97c1461020357806347535d7b146102215780636c6c32d01461023f57610115565b80625e73861461011a57806309eef43e1461014a57806326541b561461017a5780633477ee2e14610196575b600080fd5b610134600480360381019061012f9190611607565b610375565b6040516101419190611814565b60405180910390f35b610164600480360381019061015f9190611894565b6105f9565b60405161017191906118dc565b60405180910390f35b610194600480360381019061018f91906118f7565b610619565b005b6101b060048036038101906101ab919061199b565b610786565b6040516101c09493929190611a21565b60405180910390f35b6101e360048036038101906101de9190611894565b6108c6565b005b6101ed6109e6565b6040516101fa91906118dc565b60405180910390f35b61020b6109f9565b6040516102189190611814565b60405180910390f35b610229610c4f565b60405161023691906118dc565b60405180910390f35b610247610c62565b005b610251610d5f565b60405161025e9190611b36565b60405180910390f35b61026f610e38565b60405161027c9190611b58565b60405180910390f35b61029f600480360381019061029a919061199b565b610ec6565b6040516102ac9190611b58565b60405180910390f35b6102cf60048036038101906102ca9190611894565b610f72565b6040516102dc91906118dc565b60405180910390f35b6102ed610f92565b005b61030960048036038101906103049190611d23565b61103d565b005b61032560048036038101906103209190611d9b565b611354565b6040516103329190611df7565b60405180910390f35b61034361139b565b6040516103509190611e21565b60405180910390f35b610373600480360381019061036e9190611607565b6113bf565b005b606060006005836040516103899190611e78565b90815260200160405180910390208054806020026020016040519081016040528092919081815260200182805480156103e157602002820191906000526020600020905b8154815260200190600101908083116103cd575b505050505090506000815167ffffffffffffffff811115610405576104046114dc565b5b60405190808252806020026020018201604052801561043e57816020015b61042b611485565b8152602001906001900390816104235790505b50905060005b82518110156105ee576004600084838151811061046457610463611e8f565b5b602002602001015181526020019081526020016000206040518060800160405290816000820154815260200160018201805461049f90611eed565b80601f01602080910402602001604051908101604052809291908181526020018280546104cb90611eed565b80156105185780601f106104ed57610100808354040283529160200191610518565b820191906000526020600020905b8154815290600101906020018083116104fb57829003601f168201915b5050505050815260200160028201805461053190611eed565b80601f016020809104026020016040519081016040528092919081815260200182805461055d90611eed565b80156105aa5780601f1061057f576101008083540402835291602001916105aa565b820191906000526020600020905b81548152906001019060200180831161058d57829003601f168201915b505050505081526020016003820154815250508282815181106105d0576105cf611e8f565b5b602002602001018190525080806105e690611f4d565b915050610444565b508092505050919050565b60076020528060005260406000206000915054906101000a900460ff1681565b60008054906101000a900473ffffffffffffffffffffffffffffffffffffffff1673ffffffffffffffffffffffffffffffffffffffff163373ffffffffffffffffffffffffffffffffffffffff16146106a7576040517f08c379a000000000000000000000000000000000000000000000000000000000815260040161069e90611fe1565b60405180910390fd5b600360008154809291906106ba90611f4d565b919050555060405180608001604052806003548152602001838152602001828152602001600081525060046000600354815260200190815260200160002060008201518160000155602082015181600101908161071791906121ad565b50604082015181600201908161072d91906121ad565b506060820151816003015590505060058160405161074b9190611e78565b908152602001604051809103902060035490806001815401808255809150506001900390600052602060002001600090919091909150555050565b60046020528060005260406000206000915090508060000154908060010180546107af90611eed565b80601f01602080910402602001604051908101604052809291908181526020018280546107db90611eed565b80156108285780601f106107fd57610100808354040283529160200191610828565b820191906000526020600020905b81548152906001019060200180831161080b57829003601f168201915b50505050509080600201805461083d90611eed565b80601f016020809104026020016040519081016040528092919081815260200182805461086990611eed565b80156108b65780601f1061088b576101008083540402835291602001916108b6565b820191906000526020600020905b81548152906001019060200180831161089957829003601f168201915b5050505050908060030154905084565b60008054906101000a900473ffffffffffffffffffffffffffffffffffffffff1673ffffffffffffffffffffffffffffffffffffffff163373ffffffffffffffffffffffffffffffffffffffff1614610954576040517f08c379a000000000000000000000000000000000000000000000000000000000815260040161094b90611fe1565b60405180910390fd5b6001600860008373ffffffffffffffffffffffffffffffffffffffff1673ffffffffffffffffffffffffffffffffffffffff16815260200190815260200160002060006101000a81548160ff0219169083151502179055507fb6be2187d059cc2a55fe29e0e503b566e1e0f8c8780096e185429350acffd3dd816040516109db9190611e21565b60405180910390a150565b600260019054906101000a900460ff1681565b6060600260019054906101000a900460ff16610a4a576040517f08c379a0000000000000000000000000000000000000000000000000000000008152600401610a41906122cb565b60405180910390fd5b600060035467ffffffffffffffff811115610a6857610a676114dc565b5b604051908082528060200260200182016040528015610aa157816020015b610a8e611485565b815260200190600190039081610a865790505b5090506000600190505b6003548111610c47576004600082815260200190815260200160002060405180608001604052908160008201548152602001600182018054610aec90611eed565b80601f0160208091040260200160405190810160405280929190818152602001828054610b1890611eed565b8015610b655780601f10610b3a57610100808354040283529160200191610b65565b820191906000526020600020905b815481529060010190602001808311610b4857829003601f168201915b50505050508152602001600282018054610b7e90611eed565b80601f0160208091040260200160405190810160405280929190818152602001828054610baa90611eed565b8015610bf75780601f10610bcc57610100808354040283529160200191610bf7565b820191906000526020600020905b815481529060010190602001808311610bda57829003601f168201915b5050505050815260200160038201548152505082600183610c1891906122eb565b81518110610c2957610c28611e8f565b5b60200260200101819052508080610c3f90611f4d565b915050610aab565b508091505090565b600260009054906101000a900460ff1681565b60008054906101000a900473ffffffffffffffffffffffffffffffffffffffff1673ffffffffffffffffffffffffffffffffffffffff163373ffffffffffffffffffffffffffffffffffffffff1614610cf0576040517f08c379a0000000000000000000000000000000000000000000000000000000008152600401610ce790611fe1565b60405180910390fd5b6000600260006101000a81548160ff0219169083151502179055506001600260016101000a81548160ff0219169083151502179055507f393c4b8e62f1195313cf17dcf00793c668ddfc35881cd8015559c074f6d61e8342604051610d559190611df7565b60405180910390a1565b60606006805480602002602001604051908101604052809291908181526020016000905b82821015610e2f578382906000526020600020018054610da290611eed565b80601f0160208091040260200160405190810160405280929190818152602001828054610dce90611eed565b8015610e1b5780601f10610df057610100808354040283529160200191610e1b565b820191906000526020600020905b815481529060010190602001808311610dfe57829003601f168201915b505050505081526020019060010190610d83565b50505050905090565b60018054610e4590611eed565b80601f0160208091040260200160405190810160405280929190818152602001828054610e7190611eed565b8015610ebe5780601f10610e9357610100808354040283529160200191610ebe565b820191906000526020600020905b815481529060010190602001808311610ea157829003601f168201915b505050505081565b60068181548110610ed657600080fd5b906000526020600020016000915090508054610ef190611eed565b80601f0160208091040260200160405190810160405280929190818152602001828054610f1d90611eed565b8015610f6a5780601f10610f3f57610100808354040283529160200191610f6a565b820191906000526020600020905b815481529060010190602001808311610f4d57829003601f168201915b505050505081565b60086020528060005260406000206000915054906101000a900460ff1681565b60008054906101000a900473ffffffffffffffffffffffffffffffffffffffff1673ffffffffffffffffffffffffffffffffffffffff163373ffffffffffffffffffffffffffffffffffffffff1614611020576040517f08c379a000000000000000000000000000000000000000000000000000000000815260040161101790611fe1565b60405180910390fd5b6001600260006101000a81548160ff021916908315150217905550565b600260009054906101000a900460ff1661108c576040517f08c379a00000000000000000000000000000000000000000000000000000000081526004016110839061236b565b60405180910390fd5b600860003373ffffffffffffffffffffffffffffffffffffffff1673ffffffffffffffffffffffffffffffffffffffff16815260200190815260200160002060009054906101000a900460ff16611118576040517f08c379a000000000000000000000000000000000000000000000000000000000815260040161110f906123d7565b60405180910390fd5b600760003373ffffffffffffffffffffffffffffffffffffffff1673ffffffffffffffffffffffffffffffffffffffff16815260200190815260200160002060009054906101000a900460ff16156111a5576040517f08c379a000000000000000000000000000000000000000000000000000000000815260040161119c90612443565b60405180910390fd5b80518251146111e9576040517f08c379a00000000000000000000000000000000000000000000000000000000081526004016111e0906124af565b60405180910390fd5b60005b82518110156112f757600082828151811061120a57611209611e8f565b5b60200260200101511461125e576004600083838151811061122e5761122d611e8f565b5b60200260200101518152602001908152602001600020600301600081548092919061125890611f4d565b91905055505b3373ffffffffffffffffffffffffffffffffffffffff167faca75e5e5ffb423956105dbf90eddb1cf12008b340f5a36c07086c1f74aa68d08483815181106112a9576112a8611e8f565b5b60200260200101518484815181106112c4576112c3611e8f565b5b6020026020010151436040516112dc939291906124cf565b60405180910390a280806112ef90611f4d565b9150506111ec565b506001600760003373ffffffffffffffffffffffffffffffffffffffff1673ffffffffffffffffffffffffffffffffffffffff16815260200190815260200160002060006101000a81548160ff0219169083151502179055505050565b600582805160208101820180518482526020830160208501208183528095505050505050818154811061138657600080fd5b90600052602060002001600091509150505481565b60008054906101000a900473ffffffffffffffffffffffffffffffffffffffff1681565b60008054906101000a900473ffffffffffffffffffffffffffffffffffffffff1673ffffffffffffffffffffffffffffffffffffffff163373ffffffffffffffffffffffffffffffffffffffff161461144d576040517f08c379a000000000000000000000000000000000000000000000000000000000815260040161144490611fe1565b60405180910390fd5b60068190806001815401808255809150506001900390600052602060002001600090919091909150908161148191906121ad565b5050565b6040518060800160405280600081526020016060815260200160608152602001600081525090565b6000604051905090565b600080fd5b600080fd5b600080fd5b600080fd5b6000601f19601f8301169050919050565b7f4e487b7100000000000000000000000000000000000000000000000000000000600052604160045260246000fd5b611514826114cb565b810181811067ffffffffffffffff82111715611533576115326114dc565b5b80604052505050565b60006115466114ad565b9050611552828261150b565b919050565b600067ffffffffffffffff821115611572576115716114dc565b5b61157b826114cb565b9050602081019050919050565b82818337600083830152505050565b60006115aa6115a584611557565b61153c565b9050828152602081018484840111156115c6576115c56114c6565b5b6115d1848285611588565b509392505050565b600082601f8301126115ee576115ed6114c1565b5b81356115fe848260208601611597565b91505092915050565b60006020828403121561161d5761161c6114b7565b5b600082013567ffffffffffffffff81111561163b5761163a6114bc565b5b611647848285016115d9565b91505092915050565b600081519050919050565b600082825260208201905092915050565b6000819050602082019050919050565b6000819050919050565b61168f8161167c565b82525050565b600081519050919050565b600082825260208201905092915050565b60005b838110156116cf5780820151818401526020810190506116b4565b60008484015250505050565b60006116e682611695565b6116f081856116a0565b93506117008185602086016116b1565b611709816114cb565b840191505092915050565b600060808301600083015161172c6000860182611686565b506020830151848203602086015261174482826116db565b9150506040830151848203604086015261175e82826116db565b91505060608301516117736060860182611686565b508091505092915050565b600061178a8383611714565b905092915050565b6000602082019050919050565b60006117aa82611650565b6117b4818561165b565b9350836020820285016117c68561166c565b8060005b8581101561180257848403895281516117e3858261177e565b94506117ee83611792565b925060208a019950506001810190506117ca565b50829750879550505050505092915050565b6000602082019050818103600083015261182e818461179f565b905092915050565b600073ffffffffffffffffffffffffffffffffffffffff82169050919050565b600061186182611836565b9050919050565b61187181611856565b811461187c57600080fd5b50565b60008135905061188e81611868565b92915050565b6000602082840312156118aa576118a96114b7565b5b60006118b88482850161187f565b91505092915050565b60008115159050919050565b6118d6816118c1565b82525050565b60006020820190506118f160008301846118cd565b92915050565b6000806040838503121561190e5761190d6114b7565b5b600083013567ffffffffffffffff81111561192c5761192b6114bc565b5b611938858286016115d9565b925050602083013567ffffffffffffffff811115611959576119586114bc565b5b611965858286016115d9565b9150509250929050565b6119788161167c565b811461198357600080fd5b50565b6000813590506119958161196f565b92915050565b6000602082840312156119b1576119b06114b7565b5b60006119bf84828501611986565b91505092915050565b6119d18161167c565b82525050565b600082825260208201905092915050565b60006119f382611695565b6119fd81856119d7565b9350611a0d8185602086016116b1565b611a16816114cb565b840191505092915050565b6000608082019050611a3660008301876119c8565b8181036020830152611a4881866119e8565b90508181036040830152611a5c81856119e8565b9050611a6b60608301846119c8565b95945050505050565b600081519050919050565b600082825260208201905092915050565b6000819050602082019050919050565b6000611aac83836116db565b905092915050565b6000602082019050919050565b6000611acc82611a74565b611ad68185611a7f565b935083602082028501611ae885611a90565b8060005b85811015611b245784840389528151611b058582611aa0565b9450611b1083611ab4565b925060208a01995050600181019050611aec565b50829750879550505050505092915050565b60006020820190508181036000830152611b508184611ac1565b905092915050565b60006020820190508181036000830152611b7281846119e8565b905092915050565b600067ffffffffffffffff821115611b9557611b946114dc565b5b602082029050602081019050919050565b600080fd5b6000611bbe611bb984611b7a565b61153c565b90508083825260208201905060208402830185811115611be157611be0611ba6565b5b835b81811015611c2857803567ffffffffffffffff811115611c0657611c056114c1565b5b808601611c1389826115d9565b85526020850194505050602081019050611be3565b5050509392505050565b600082601f830112611c4757611c466114c1565b5b8135611c57848260208601611bab565b91505092915050565b600067ffffffffffffffff821115611c7b57611c7a6114dc565b5b602082029050602081019050919050565b6000611c9f611c9a84611c60565b61153c565b90508083825260208201905060208402830185811115611cc257611cc1611ba6565b5b835b81811015611ceb5780611cd78882611986565b845260208401935050602081019050611cc4565b5050509392505050565b600082601f830112611d0a57611d096114c1565b5b8135611d1a848260208601611c8c565b91505092915050565b60008060408385031215611d3a57611d396114b7565b5b600083013567ffffffffffffffff811115611d5857611d576114bc565b5b611d6485828601611c32565b925050602083013567ffffffffffffffff811115611d8557611d846114bc565b5b611d9185828601611cf5565b9150509250929050565b60008060408385031215611db257611db16114b7565b5b600083013567ffffffffffffffff811115611dd057611dcf6114bc565b5b611ddc858286016115d9565b9250506020611ded85828601611986565b9150509250929050565b6000602082019050611e0c60008301846119c8565b92915050565b611e1b81611856565b82525050565b6000602082019050611e366000830184611e12565b92915050565b600081905092915050565b6000611e5282611695565b611e5c8185611e3c565b9350611e6c8185602086016116b1565b80840191505092915050565b6000611e848284611e47565b915081905092915050565b7f4e487b7100000000000000000000000000000000000000000000000000000000600052603260045260246000fd5b7f4e487b7100000000000000000000000000000000000000000000000000000000600052602260045260246000fd5b60006002820490506001821680611f0557607f821691505b602082108103611f1857611f17611ebe565b5b50919050565b7f4e487b7100000000000000000000000000000000000000000000000000000000600052601160045260246000fd5b6000611f588261167c565b91507fffffffffffffffffffffffffffffffffffffffffffffffffffffffffffffffff8203611f8a57611f89611f1e565b5b600182019050919050565b7f4f6e6c792061646d696e00000000000000000000000000000000000000000000600082015250565b6000611fcb600a836119d7565b9150611fd682611f95565b602082019050919050565b60006020820190508181036000830152611ffa81611fbe565b9050919050565b60008190508160005260206000209050919050565b60006020601f8301049050919050565b600082821b905092915050565b6000600883026120637fffffffffffffffffffffffffffffffffffffffffffffffffffffffffffffffff82612026565b61206d8683612026565b95508019841693508086168417925050509392505050565b6000819050919050565b60006120aa6120a56120a08461167c565b612085565b61167c565b9050919050565b6000819050919050565b6120c48361208f565b6120d86120d0826120b1565b848454612033565b825550505050565b600090565b6120ed6120e0565b6120f88184846120bb565b505050565b5b8181101561211c576121116000826120e5565b6001810190506120fe565b5050565b601f8211156121615761213281612001565b61213b84612016565b8101602085101561214a578190505b61215e61215685612016565b8301826120fd565b50505b505050565b600082821c905092915050565b600061218460001984600802612166565b1980831691505092915050565b600061219d8383612173565b9150826002028217905092915050565b6121b682611695565b67ffffffffffffffff8111156121cf576121ce6114dc565b5b6121d98254611eed565b6121e4828285612120565b600060209050601f8311600181146122175760008415612205578287015190505b61220f8582612191565b865550612277565b601f19841661222586612001565b60005b8281101561224d57848901518255600182019150602085019450602081019050612228565b8683101561226a5784890151612266601f891682612173565b8355505b6001600288020188555050505b505050505050565b7f526573756c7473206e6f742079657420617661696c61626c6500000000000000600082015250565b60006122b56019836119d7565b91506122c08261227f565b602082019050919050565b600060208201905081810360008301526122e4816122a8565b9050919050565b60006122f68261167c565b91506123018361167c565b925082820390508181111561231957612318611f1e565b5b92915050565b7f456c656374696f6e206973206e6f74206f70656e000000000000000000000000600082015250565b60006123556014836119d7565b91506123608261231f565b602082019050919050565b6000602082019050818103600083015261238481612348565b9050919050565b7f4e6f742061207265676973746572656420766f74657200000000000000000000600082015250565b60006123c16016836119d7565b91506123cc8261238b565b602082019050919050565b600060208201905081810360008301526123f0816123b4565b9050919050565b7f416c726561647920766f74656400000000000000000000000000000000000000600082015250565b600061242d600d836119d7565b9150612438826123f7565b602082019050919050565b6000602082019050818103600083015261245c81612420565b9050919050565b7f4d69736d61746368000000000000000000000000000000000000000000000000600082015250565b60006124996008836119d7565b91506124a482612463565b602082019050919050565b600060208201905081810360008301526124c88161248c565b9050919050565b600060608201905081810360008301526124e981866119e8565b90506124f860208301856119c8565b61250560408301846119c8565b94935050505056fea26469706673582212203be660b478f05d8c9657045ac90fe58978d3e6074e23fe44b629acedf97f813664736f6c63430008130033",
  "linkReferences": {},
  "deployedLinkReferences": {}
}